{
  "_format": "hh-sol-artifact-1",
  "contractName": "BountyEscrow",
  "sourceName": "contracts/BountyEscrow.sol",
  "abi": [
    {
      "inputs": [
        {
          "internalType": "address",
          "name": "relayer",
          "type": "address"
        }
      ],
      "stateMutability": "nonpayable",
      "type": "constructor"
    },
    {
      "inputs": [],
      "name": "AutoReleaseNotReady",
      "type": "error"
    },
    {
      "inputs": [],
      "name": "BountyAlreadyInitialized",
      "type": "error"
    },
    {
      "inputs": [],
      "name": "BountyClosedError",
      "type": "error"
    },
    {
      "inputs": [],
      "name": "BountyNotInitialized",
      "type": "error"
    },
    {
      "inputs": [],
      "name": "DisputeWindowExpired",
      "type": "error"
    },
    {
      "inputs": [],
      "name": "DuplicateReportHash",
      "type": "error"
    },
    {
      "inputs": [],
      "name": "InsufficientEscrow",
      "type": "error"
    },
    {
      "inputs": [],
      "name": "InvalidAddress",
      "type": "error"
    },
    {
      "inputs": [],
      "name": "InvalidAmount",
      "type": "error"
    },
    {
      "inputs": [],
      "name": "InvalidReport",
      "type": "error"
    },
    {
      "inputs": [],
      "name": "InvalidState",
      "type": "error"
    },
    {
      "inputs": [],
      "name": "NotArbiter",
      "type": "error"
    },
    {
      "inputs": [],
      "name": "NotOrganization",
      "type": "error"
    },
    {
      "inputs": [],
      "name": "NotResearcher",
      "type": "error"
    },
    {
      "inputs": [],
      "name": "PendingReservedPayouts",
      "type": "error"
    },
    {
      "inputs": [],
      "name": "TransferFailed",
      "type": "error"
    },
    {
      "anonymous": false,
      "inputs": [
        {
          "indexed": true,
          "internalType": "address",
          "name": "organization",
          "type": "address"
        },
        {
          "indexed": false,
          "internalType": "uint256",
          "name": "refundedAmount",
          "type": "uint256"
        }
      ],
      "name": "BountyClosed",
      "type": "event"
    },
    {
      "anonymous": false,
      "inputs": [
        {
          "indexed": true,
          "internalType": "address",
          "name": "organization",
          "type": "address"
        },
        {
          "indexed": true,
          "internalType": "address",
          "name": "arbiter",
          "type": "address"
        },
        {
          "indexed": false,
          "internalType": "string",
          "name": "metadataURI",
          "type": "string"
        },
        {
          "indexed": false,
          "internalType": "uint64",
          "name": "autoReleaseWindow",
          "type": "uint64"
        },
        {
          "indexed": false,
          "internalType": "uint64",
          "name": "disputeWindow",
          "type": "uint64"
        },
        {
          "indexed": false,
          "internalType": "uint256",
          "name": "initialFunding",
          "type": "uint256"
        }
      ],
      "name": "BountyCreated",
      "type": "event"
    },
    {
      "anonymous": false,
      "inputs": [
        {
          "indexed": true,
          "internalType": "address",
          "name": "org",
          "type": "address"
        },
        {
          "indexed": false,
          "internalType": "uint256",
          "name": "amount",
          "type": "uint256"
        }
      ],
      "name": "BountyDeposited",
      "type": "event"
    },
    {
      "anonymous": false,
      "inputs": [
        {
          "indexed": true,
          "internalType": "address",
          "name": "researcher",
          "type": "address"
        },
        {
          "indexed": false,
          "internalType": "uint256",
          "name": "amount",
          "type": "uint256"
        }
      ],
      "name": "BountyPaid",
      "type": "event"
    },
    {
      "anonymous": false,
      "inputs": [
        {
          "indexed": true,
          "internalType": "uint256",
          "name": "reportId",
          "type": "uint256"
        },
        {
          "indexed": false,
          "internalType": "bool",
          "name": "approved",
          "type": "bool"
        },
        {
          "indexed": false,
          "internalType": "uint256",
          "name": "payoutAmount",
          "type": "uint256"
        }
      ],
      "name": "DisputeResolved",
      "type": "event"
    },
    {
      "anonymous": false,
      "inputs": [
        {
          "indexed": true,
          "internalType": "address",
          "name": "funder",
          "type": "address"
        },
        {
          "indexed": false,
          "internalType": "uint256",
          "name": "amount",
          "type": "uint256"
        },
        {
          "indexed": false,
          "internalType": "uint256",
          "name": "totalFunded",
          "type": "uint256"
        }
      ],
      "name": "Funded",
      "type": "event"
    },
    {
      "anonymous": false,
      "inputs": [
        {
          "indexed": true,
          "internalType": "uint256",
          "name": "reportId",
          "type": "uint256"
        },
        {
          "indexed": true,
          "internalType": "address",
          "name": "researcher",
          "type": "address"
        },
        {
          "indexed": false,
          "internalType": "uint256",
          "name": "amount",
          "type": "uint256"
        },
        {
          "indexed": false,
          "internalType": "address",
          "name": "releasedBy",
          "type": "address"
        }
      ],
      "name": "PayoutReleased",
      "type": "event"
    },
    {
      "anonymous": false,
      "inputs": [
        {
          "indexed": true,
          "internalType": "uint256",
          "name": "reportId",
          "type": "uint256"
        },
        {
          "indexed": true,
          "internalType": "address",
          "name": "reviewer",
          "type": "address"
        },
        {
          "indexed": false,
          "internalType": "uint256",
          "name": "payoutAmount",
          "type": "uint256"
        }
      ],
      "name": "ReportApproved",
      "type": "event"
    },
    {
      "anonymous": false,
      "inputs": [
        {
          "indexed": true,
          "internalType": "uint256",
          "name": "reportId",
          "type": "uint256"
        },
        {
          "indexed": true,
          "internalType": "address",
          "name": "researcher",
          "type": "address"
        },
        {
          "indexed": false,
          "internalType": "string",
          "name": "reason",
          "type": "string"
        }
      ],
      "name": "ReportDisputed",
      "type": "event"
    },
    {
      "anonymous": false,
      "inputs": [
        {
          "indexed": true,
          "internalType": "uint256",
          "name": "reportId",
          "type": "uint256"
        },
        {
          "indexed": true,
          "internalType": "address",
          "name": "reviewer",
          "type": "address"
        },
        {
          "indexed": false,
          "internalType": "string",
          "name": "reason",
          "type": "string"
        }
      ],
      "name": "ReportRejected",
      "type": "event"
    },
    {
      "anonymous": false,
      "inputs": [
        {
          "indexed": true,
          "internalType": "uint256",
          "name": "reportId",
          "type": "uint256"
        },
        {
          "indexed": true,
          "internalType": "address",
          "name": "researcher",
          "type": "address"
        },
        {
          "indexed": true,
          "internalType": "bytes32",
          "name": "reportHash",
          "type": "bytes32"
        }
      ],
      "name": "ReportSubmitted",
      "type": "event"
    },
    {
      "anonymous": false,
      "inputs": [
        {
          "indexed": true,
          "internalType": "bytes32",
          "name": "role",
          "type": "bytes32"
        },
        {
          "indexed": true,
          "internalType": "bytes32",
          "name": "previousAdminRole",
          "type": "bytes32"
        },
        {
          "indexed": true,
          "internalType": "bytes32",
          "name": "newAdminRole",
          "type": "bytes32"
        }
      ],
      "name": "RoleAdminChanged",
      "type": "event"
    },
    {
      "anonymous": false,
      "inputs": [
        {
          "indexed": true,
          "internalType": "bytes32",
          "name": "role",
          "type": "bytes32"
        },
        {
          "indexed": true,
          "internalType": "address",
          "name": "account",
          "type": "address"
        },
        {
          "indexed": true,
          "internalType": "address",
          "name": "sender",
          "type": "address"
        }
      ],
      "name": "RoleGranted",
      "type": "event"
    },
    {
      "anonymous": false,
      "inputs": [
        {
          "indexed": true,
          "internalType": "bytes32",
          "name": "role",
          "type": "bytes32"
        },
        {
          "indexed": true,
          "internalType": "address",
          "name": "account",
          "type": "address"
        },
        {
          "indexed": true,
          "internalType": "address",
          "name": "sender",
          "type": "address"
        }
      ],
      "name": "RoleRevoked",
      "type": "event"
    },
    {
      "inputs": [],
      "name": "DEFAULT_ADMIN_ROLE",
      "outputs": [
        {
          "internalType": "bytes32",
          "name": "",
          "type": "bytes32"
        }
      ],
      "stateMutability": "view",
      "type": "function"
    },
    {
      "inputs": [],
      "name": "RELAYER_ROLE",
      "outputs": [
        {
          "internalType": "bytes32",
          "name": "",
          "type": "bytes32"
        }
      ],
      "stateMutability": "view",
      "type": "function"
    },
    {
      "inputs": [
        {
          "internalType": "address payable",
          "name": "researcher",
          "type": "address"
        },
        {
          "internalType": "uint96",
          "name": "amount",
          "type": "uint96"
        }
      ],
      "name": "approveAndPay",
      "outputs": [],
      "stateMutability": "nonpayable",
      "type": "function"
    },
    {
      "inputs": [
        {
          "internalType": "uint256",
          "name": "reportId",
          "type": "uint256"
        },
        {
          "internalType": "uint96",
          "name": "payoutAmount",
          "type": "uint96"
        }
      ],
      "name": "approveReport",
      "outputs": [],
      "stateMutability": "nonpayable",
      "type": "function"
    },
    {
      "inputs": [],
      "name": "arbiter",
      "outputs": [
        {
          "internalType": "address",
          "name": "",
          "type": "address"
        }
      ],
      "stateMutability": "view",
      "type": "function"
    },
    {
      "inputs": [],
      "name": "autoReleaseWindow",
      "outputs": [
        {
          "internalType": "uint64",
          "name": "",
          "type": "uint64"
        }
      ],
      "stateMutability": "view",
      "type": "function"
    },
    {
      "inputs": [],
      "name": "availableEscrow",
      "outputs": [
        {
          "internalType": "uint256",
          "name": "",
          "type": "uint256"
        }
      ],
      "stateMutability": "view",
      "type": "function"
    },
    {
      "inputs": [],
      "name": "bountyClosed",
      "outputs": [
        {
          "internalType": "bool",
          "name": "",
          "type": "bool"
        }
      ],
      "stateMutability": "view",
      "type": "function"
    },
    {
      "inputs": [],
      "name": "bountyInitialized",
      "outputs": [
        {
          "internalType": "bool",
          "name": "",
          "type": "bool"
        }
      ],
      "stateMutability": "view",
      "type": "function"
    },
    {
      "inputs": [],
      "name": "closeBounty",
      "outputs": [],
      "stateMutability": "nonpayable",
      "type": "function"
    },
    {
      "inputs": [
        {
          "internalType": "address",
          "name": "organization_",
          "type": "address"
        },
        {
          "internalType": "string",
          "name": "metadataURI_",
          "type": "string"
        },
        {
          "internalType": "address",
          "name": "arbiter_",
          "type": "address"
        },
        {
          "internalType": "uint64",
          "name": "autoReleaseWindow_",
          "type": "uint64"
        },
        {
          "internalType": "uint64",
          "name": "disputeWindow_",
          "type": "uint64"
        }
      ],
      "name": "createBounty",
      "outputs": [],
      "stateMutability": "payable",
      "type": "function"
    },
    {
      "inputs": [],
      "name": "deposit",
      "outputs": [],
      "stateMutability": "payable",
      "type": "function"
    },
    {
      "inputs": [
        {
          "internalType": "uint256",
          "name": "reportId",
          "type": "uint256"
        },
        {
          "internalType": "string",
          "name": "reason",
          "type": "string"
        }
      ],
      "name": "disputeReport",
      "outputs": [],
      "stateMutability": "nonpayable",
      "type": "function"
    },
    {
      "inputs": [],
      "name": "disputeWindow",
      "outputs": [
        {
          "internalType": "uint64",
          "name": "",
          "type": "uint64"
        }
      ],
      "stateMutability": "view",
      "type": "function"
    },
    {
      "inputs": [],
      "name": "fundBounty",
      "outputs": [],
      "stateMutability": "payable",
      "type": "function"
    },
    {
      "inputs": [
        {
          "internalType": "bytes32",
          "name": "role",
          "type": "bytes32"
        }
      ],
      "name": "getRoleAdmin",
      "outputs": [
        {
          "internalType": "bytes32",
          "name": "",
          "type": "bytes32"
        }
      ],
      "stateMutability": "view",
      "type": "function"
    },
    {
      "inputs": [
        {
          "internalType": "bytes32",
          "name": "role",
          "type": "bytes32"
        },
        {
          "internalType": "address",
          "name": "account",
          "type": "address"
        }
      ],
      "name": "grantRole",
      "outputs": [],
      "stateMutability": "nonpayable",
      "type": "function"
    },
    {
      "inputs": [
        {
          "internalType": "bytes32",
          "name": "role",
          "type": "bytes32"
        },
        {
          "internalType": "address",
          "name": "account",
          "type": "address"
        }
      ],
      "name": "hasRole",
      "outputs": [
        {
          "internalType": "bool",
          "name": "",
          "type": "bool"
        }
      ],
      "stateMutability": "view",
      "type": "function"
    },
    {
      "inputs": [],
      "name": "isActive",
      "outputs": [
        {
          "internalType": "bool",
          "name": "",
          "type": "bool"
        }
      ],
      "stateMutability": "view",
      "type": "function"
    },
    {
      "inputs": [],
      "name": "metadataURI",
      "outputs": [
        {
          "internalType": "string",
          "name": "",
          "type": "string"
        }
      ],
      "stateMutability": "view",
      "type": "function"
    },
    {
      "inputs": [],
      "name": "organization",
      "outputs": [
        {
          "internalType": "address",
          "name": "",
          "type": "address"
        }
      ],
      "stateMutability": "view",
      "type": "function"
    },
    {
      "inputs": [
        {
          "internalType": "uint256",
          "name": "reportId",
          "type": "uint256"
        },
        {
          "internalType": "string",
          "name": "reason",
          "type": "string"
        }
      ],
      "name": "rejectReport",
      "outputs": [],
      "stateMutability": "nonpayable",
      "type": "function"
    },
    {
      "inputs": [
        {
          "internalType": "uint256",
          "name": "reportId",
          "type": "uint256"
        }
      ],
      "name": "releaseFunds",
      "outputs": [],
      "stateMutability": "nonpayable",
      "type": "function"
    },
    {
      "inputs": [
        {
          "internalType": "bytes32",
          "name": "role",
          "type": "bytes32"
        },
        {
          "internalType": "address",
          "name": "account",
          "type": "address"
        }
      ],
      "name": "renounceRole",
      "outputs": [],
      "stateMutability": "nonpayable",
      "type": "function"
    },
    {
      "inputs": [],
      "name": "reportCount",
      "outputs": [
        {
          "internalType": "uint256",
          "name": "",
          "type": "uint256"
        }
      ],
      "stateMutability": "view",
      "type": "function"
    },
    {
      "inputs": [
        {
          "internalType": "bytes32",
          "name": "",
          "type": "bytes32"
        }
      ],
      "name": "reportHashUsed",
      "outputs": [
        {
          "internalType": "bool",
          "name": "",
          "type": "bool"
        }
      ],
      "stateMutability": "view",
      "type": "function"
    },
    {
      "inputs": [
        {
          "internalType": "uint256",
          "name": "",
          "type": "uint256"
        }
      ],
      "name": "reports",
      "outputs": [
        {
          "internalType": "address",
          "name": "researcher",
          "type": "address"
        },
        {
          "internalType": "bytes32",
          "name": "reportHash",
          "type": "bytes32"
        },
        {
          "internalType": "uint96",
          "name": "approvedAmount",
          "type": "uint96"
        },
        {
          "internalType": "uint64",
          "name": "submittedAt",
          "type": "uint64"
        },
        {
          "internalType": "uint64",
          "name": "reviewedAt",
          "type": "uint64"
        },
        {
          "internalType": "uint64",
          "name": "disputedAt",
          "type": "uint64"
        },
        {
          "internalType": "enum BountyEscrow.ReportStatus",
          "name": "status",
          "type": "uint8"
        },
        {
          "internalType": "bool",
          "name": "paidOut",
          "type": "bool"
        }
      ],
      "stateMutability": "view",
      "type": "function"
    },
    {
      "inputs": [
        {
          "internalType": "uint256",
          "name": "reportId",
          "type": "uint256"
        },
        {
          "internalType": "bool",
          "name": "approve",
          "type": "bool"
        },
        {
          "internalType": "uint96",
          "name": "payoutAmount",
          "type": "uint96"
        }
      ],
      "name": "resolveDispute",
      "outputs": [],
      "stateMutability": "nonpayable",
      "type": "function"
    },
    {
      "inputs": [
        {
          "internalType": "bytes32",
          "name": "role",
          "type": "bytes32"
        },
        {
          "internalType": "address",
          "name": "account",
          "type": "address"
        }
      ],
      "name": "revokeRole",
      "outputs": [],
      "stateMutability": "nonpayable",
      "type": "function"
    },
    {
      "inputs": [
        {
          "internalType": "address",
          "name": "researcher",
          "type": "address"
        },
        {
          "internalType": "bytes32",
          "name": "reportHash",
          "type": "bytes32"
        }
      ],
      "name": "submitReportHash",
      "outputs": [
        {
          "internalType": "uint256",
          "name": "reportId",
          "type": "uint256"
        }
      ],
      "stateMutability": "nonpayable",
      "type": "function"
    },
    {
      "inputs": [
        {
          "internalType": "bytes4",
          "name": "interfaceId",
          "type": "bytes4"
        }
      ],
      "name": "supportsInterface",
      "outputs": [
        {
          "internalType": "bool",
          "name": "",
          "type": "bool"
        }
      ],
      "stateMutability": "view",
      "type": "function"
    },
    {
      "inputs": [],
      "name": "totalFunded",
      "outputs": [
        {
          "internalType": "uint96",
          "name": "",
          "type": "uint96"
        }
      ],
      "stateMutability": "view",
      "type": "function"
    },
    {
      "inputs": [],
      "name": "totalPaidOut",
      "outputs": [
        {
          "internalType": "uint96",
          "name": "",
          "type": "uint96"
        }
      ],
      "stateMutability": "view",
      "type": "function"
    },
    {
      "inputs": [],
      "name": "totalReserved",
      "outputs": [
        {
          "internalType": "uint96",
          "name": "",
          "type": "uint96"
        }
      ],
      "stateMutability": "view",
      "type": "function"
    }
  ],
  "bytecode": "0x60806040523480156200001157600080fd5b506040516200550d3803806200550d83398181016040528101906200003791906200028f565b60018081905550620000536000801b33620000c260201b60201c565b600073ffffffffffffffffffffffffffffffffffffffff168173ffffffffffffffffffffffffffffffffffffffff1614620000bb57620000ba7fe2b7fb3b832174769106daebcfd6d1970523240dda11281102db9363b83b0dc482620000c260201b60201c565b5b50620002c1565b620000d48282620001b360201b60201c565b620001af57600160008084815260200190815260200160002060000160008373ffffffffffffffffffffffffffffffffffffffff1673ffffffffffffffffffffffffffffffffffffffff16815260200190815260200160002060006101000a81548160ff021916908315150217905550620001546200021d60201b60201c565b73ffffffffffffffffffffffffffffffffffffffff168173ffffffffffffffffffffffffffffffffffffffff16837f2f8788117e7eff1d82e926ec794901d17c78024a50270940304540a733656f0d60405160405180910390a45b5050565b600080600084815260200190815260200160002060000160008373ffffffffffffffffffffffffffffffffffffffff1673ffffffffffffffffffffffffffffffffffffffff16815260200190815260200160002060009054906101000a900460ff16905092915050565b600033905090565b600080fd5b600073ffffffffffffffffffffffffffffffffffffffff82169050919050565b600062000257826200022a565b9050919050565b62000269816200024a565b81146200027557600080fd5b50565b60008151905062000289816200025e565b92915050565b600060208284031215620002a857620002a762000225565b5b6000620002b88482850162000278565b91505092915050565b61523c80620002d16000396000f3fe6080604052600436106101f95760003560e01c80634d68282f1161010d578063a217fddf116100a0578063d0e30db01161006f578063d0e30db01461071f578063d547741f14610729578063e6512ea214610752578063e7d822871461075c578063fe25e00a14610785576101f9565b8063a217fddf1461065a578063ad044f4914610685578063c71b0e1c146106b0578063c942adf7146106db576101f9565b806383a309a0116100dc57806383a309a01461058c57806391d14854146105b5578063921def59146105f2578063926d7d7f1461062f576101f9565b80634d68282f146104e45780635068e8ff1461050d57806365ed992514610538578063795cfaf014610561576101f9565b806322f3e2d4116101905780632f2ff15d1161015f5780632f2ff15d1461041357806336568abe1461043c5780633ccd66141461046557806340d8cc281461048e57806346eb1844146104b9576101f9565b806322f3e2d41461036957806323bd4d7a14610394578063248a9ca3146103bf578063280893ee146103fc576101f9565b80631034862d116101cc5780631034862d146102ab578063117f5f92146102e85780631357e1dc14610313578063185c6f841461033e576101f9565b806301a5a2b0146101fe57806301ffc9a71461021a57806303ee438c146102575780630f3a257014610282575b600080fd5b61021860048036038101906102139190614147565b6107b0565b005b34801561022657600080fd5b50610241600480360381019061023c9190614239565b610c4d565b60405161024e9190614281565b60405180910390f35b34801561026357600080fd5b5061026c610cc7565b604051610279919061432c565b60405180910390f35b34801561028e57600080fd5b506102a960048036038101906102a49190614384565b610d55565b005b3480156102b757600080fd5b506102d260048036038101906102cd919061441a565b611017565b6040516102df9190614281565b60405180910390f35b3480156102f457600080fd5b506102fd611037565b60405161030a9190614456565b60405180910390f35b34801561031f57600080fd5b50610328611051565b6040516103359190614498565b60405180910390f35b34801561034a57600080fd5b5061035361106f565b60405161036091906144c2565b60405180910390f35b34801561037557600080fd5b5061037e611075565b60405161038b9190614281565b60405180910390f35b3480156103a057600080fd5b506103a96110a5565b6040516103b691906144ec565b60405180910390f35b3480156103cb57600080fd5b506103e660048036038101906103e1919061441a565b6110cb565b6040516103f39190614516565b60405180910390f35b34801561040857600080fd5b506104116110ea565b005b34801561041f57600080fd5b5061043a60048036038101906104359190614531565b611467565b005b34801561044857600080fd5b50610463600480360381019061045e9190614531565b611488565b005b34801561047157600080fd5b5061048c600480360381019061048791906145c9565b61150b565b005b34801561049a57600080fd5b506104a3611c3b565b6040516104b09190614456565b60405180910390f35b3480156104c557600080fd5b506104ce611c55565b6040516104db9190614281565b60405180910390f35b3480156104f057600080fd5b5061050b6004803603810190610506919061461c565b611c68565b005b34801561051957600080fd5b506105226122fc565b60405161052f91906144c2565b60405180910390f35b34801561054457600080fd5b5061055f600480360381019061055a9190614687565b612392565b005b34801561056d57600080fd5b50610576612795565b6040516105839190614281565b60405180910390f35b34801561059857600080fd5b506105b360048036038101906105ae91906146c7565b6127a8565b005b3480156105c157600080fd5b506105dc60048036038101906105d79190614531565b612b88565b6040516105e99190614281565b60405180910390f35b3480156105fe57600080fd5b5061061960048036038101906106149190614707565b612bf2565b60405161062691906144c2565b60405180910390f35b34801561063b57600080fd5b5061064461310d565b6040516106519190614516565b60405180910390f35b34801561066657600080fd5b5061066f613131565b60405161067c9190614516565b60405180910390f35b34801561069157600080fd5b5061069a613138565b6040516106a79190614498565b60405180910390f35b3480156106bc57600080fd5b506106c5613156565b6040516106d29190614498565b60405180910390f35b3480156106e757600080fd5b5061070260048036038101906106fd919061461c565b613174565b6040516107169897969594939291906147be565b60405180910390f35b61072761324a565b005b34801561073557600080fd5b50610750600480360381019061074b9190614531565b61339f565b005b61075a6133c0565b005b34801561076857600080fd5b50610783600480360381019061077e9190614384565b613515565b005b34801561079157600080fd5b5061079a61393a565b6040516107a791906144ec565b60405180910390f35b600360149054906101000a900460ff16156107f7576040517fa264339500000000000000000000000000000000000000000000000000000000815260040160405180910390fd5b600073ffffffffffffffffffffffffffffffffffffffff168673ffffffffffffffffffffffffffffffffffffffff160361085d576040517fe6c4247b00000000000000000000000000000000000000000000000000000000815260040160405180910390fd5b60006108897fe2b7fb3b832174769106daebcfd6d1970523240dda11281102db9363b83b0dc433612b88565b9050801580156108c557508673ffffffffffffffffffffffffffffffffffffffff163373ffffffffffffffffffffffffffffffffffffffff1614155b156108fc576040517f29da809d00000000000000000000000000000000000000000000000000000000815260040160405180910390fd5b86600260006101000a81548173ffffffffffffffffffffffffffffffffffffffff021916908373ffffffffffffffffffffffffffffffffffffffff160217905550600073ffffffffffffffffffffffffffffffffffffffff168473ffffffffffffffffffffffffffffffffffffffff16146109775783610979565b865b600360006101000a81548173ffffffffffffffffffffffffffffffffffffffff021916908373ffffffffffffffffffffffffffffffffffffffff1602179055508585600491826109ca929190614a82565b5060008367ffffffffffffffff16146109e357826109e8565b6202a3005b600560006101000a81548167ffffffffffffffff021916908367ffffffffffffffff16021790555060008267ffffffffffffffff1614610a285781610a2d565b6203f4805b600560086101000a81548167ffffffffffffffff021916908367ffffffffffffffff1602179055506001600360146101000a81548160ff0219169083151502179055506000341115610b895734600560108282829054906101000a90046bffffffffffffffffffffffff16610aa29190614b81565b92506101000a8154816bffffffffffffffffffffffff02191690836bffffffffffffffffffffffff1602179055503373ffffffffffffffffffffffffffffffffffffffff167fcd909ec339185c4598a4096e174308fbdf136d117f230960f873a2f2e81f63af34600560109054906101000a90046bffffffffffffffffffffffff16604051610b32929190614bf2565b60405180910390a23373ffffffffffffffffffffffffffffffffffffffff167ffd659ad05094196dc326624351738485027a10bfdda3d2200e7334a5457c65a934604051610b8091906144c2565b60405180910390a25b600360009054906101000a900473ffffffffffffffffffffffffffffffffffffffff1673ffffffffffffffffffffffffffffffffffffffff168773ffffffffffffffffffffffffffffffffffffffff167f4560e8cc795aeb9ba3321f31814988e28e94191684b5b77012491ff43d02242b8888600560009054906101000a900467ffffffffffffffff16600560089054906101000a900467ffffffffffffffff1634604051610c3c959493929190614c57565b60405180910390a350505050505050565b60007f7965db0b000000000000000000000000000000000000000000000000000000007bffffffffffffffffffffffffffffffffffffffffffffffffffffffff1916827bffffffffffffffffffffffffffffffffffffffffffffffffffffffff19161480610cc05750610cbf82613960565b5b9050919050565b60048054610cd4906148a5565b80601f0160208091040260200160405190810160405280929190818152602001828054610d00906148a5565b8015610d4d5780601f10610d2257610100808354040283529160200191610d4d565b820191906000526020600020905b815481529060010190602001808311610d3057829003601f168201915b505050505081565b600360149054906101000a900460ff16610d9b576040517f877bedb200000000000000000000000000000000000000000000000000000000815260040160405180910390fd5b600360159054906101000a900460ff1615610de2576040517fb564121500000000000000000000000000000000000000000000000000000000815260040160405180910390fd5b600260009054906101000a900473ffffffffffffffffffffffffffffffffffffffff1673ffffffffffffffffffffffffffffffffffffffff163373ffffffffffffffffffffffffffffffffffffffff1614158015610e675750610e657fe2b7fb3b832174769106daebcfd6d1970523240dda11281102db9363b83b0dc433612b88565b155b15610e9e576040517f29da809d00000000000000000000000000000000000000000000000000000000815260040160405180910390fd5b600060086000858152602001908152602001600020905060016005811115610ec957610ec8614747565b5b8160030160089054906101000a900460ff166005811115610eed57610eec614747565b5b14158015610f31575060046005811115610f0a57610f09614747565b5b8160030160089054906101000a900460ff166005811115610f2e57610f2d614747565b5b14155b15610f68576040517fbaf3f0f700000000000000000000000000000000000000000000000000000000815260040160405180910390fd5b428160020160146101000a81548167ffffffffffffffff021916908367ffffffffffffffff16021790555060038160030160086101000a81548160ff02191690836005811115610fbb57610fba614747565b5b02179055503373ffffffffffffffffffffffffffffffffffffffff16847f68ac7a7469852261d06b9c916a01ddbd0c11d4d5147a0beb3bc8811fcee8b5a48585604051611009929190614ca5565b60405180910390a350505050565b60096020528060005260406000206000915054906101000a900460ff1681565b600560089054906101000a900467ffffffffffffffff1681565b6006600c9054906101000a90046bffffffffffffffffffffffff1681565b60075481565b6000600360149054906101000a900460ff1680156110a05750600360159054906101000a900460ff16155b905090565b600260009054906101000a900473ffffffffffffffffffffffffffffffffffffffff1681565b6000806000838152602001908152602001600020600101549050919050565b6110f26139ca565b600360149054906101000a900460ff16611138576040517f877bedb200000000000000000000000000000000000000000000000000000000815260040160405180910390fd5b600260009054906101000a900473ffffffffffffffffffffffffffffffffffffffff1673ffffffffffffffffffffffffffffffffffffffff163373ffffffffffffffffffffffffffffffffffffffff16141580156111bd57506111bb7fe2b7fb3b832174769106daebcfd6d1970523240dda11281102db9363b83b0dc433612b88565b155b156111f4576040517f29da809d00000000000000000000000000000000000000000000000000000000815260040160405180910390fd5b600360159054906101000a900460ff161561123b576040517fb564121500000000000000000000000000000000000000000000000000000000815260040160405180910390fd5b6000600660009054906101000a90046bffffffffffffffffffffffff166bffffffffffffffffffffffff16111561129e576040517f3efac77d00000000000000000000000000000000000000000000000000000000815260040160405180910390fd5b6001600360156101000a81548160ff02191690831515021790555060006112c36122fc565b905060008111156113ec5780600560108282829054906101000a90046bffffffffffffffffffffffff166112f79190614cc9565b92506101000a8154816bffffffffffffffffffffffff02191690836bffffffffffffffffffffffff1602179055506000600260009054906101000a900473ffffffffffffffffffffffffffffffffffffffff1673ffffffffffffffffffffffffffffffffffffffff168260405161136d90614d3a565b60006040518083038185875af1925050503d80600081146113aa576040519150601f19603f3d011682016040523d82523d6000602084013e6113af565b606091505b50509050806113ea576040517f90b8ec1800000000000000000000000000000000000000000000000000000000815260040160405180910390fd5b505b600260009054906101000a900473ffffffffffffffffffffffffffffffffffffffff1673ffffffffffffffffffffffffffffffffffffffff167f9c510f27398d1b141df4b0d2939c0c947df760de89416737a84392dbce56f5208260405161145491906144c2565b60405180910390a250611465613a19565b565b611470826110cb565b61147981613a22565b6114838383613a36565b505050565b611490613b16565b73ffffffffffffffffffffffffffffffffffffffff168173ffffffffffffffffffffffffffffffffffffffff16146114fd576040517f08c379a00000000000000000000000000000000000000000000000000000000081526004016114f490614dc1565b60405180910390fd5b6115078282613b1e565b5050565b600360149054906101000a900460ff16611551576040517f877bedb200000000000000000000000000000000000000000000000000000000815260040160405180910390fd5b600360159054906101000a900460ff1615611598576040517fb564121500000000000000000000000000000000000000000000000000000000815260040160405180910390fd5b600360009054906101000a900473ffffffffffffffffffffffffffffffffffffffff1673ffffffffffffffffffffffffffffffffffffffff163373ffffffffffffffffffffffffffffffffffffffff16141580156116445750600260009054906101000a900473ffffffffffffffffffffffffffffffffffffffff1673ffffffffffffffffffffffffffffffffffffffff163373ffffffffffffffffffffffffffffffffffffffff1614155b801561167757506116757fe2b7fb3b832174769106daebcfd6d1970523240dda11281102db9363b83b0dc433612b88565b155b156116ae576040517fccb665a600000000000000000000000000000000000000000000000000000000815260040160405180910390fd5b6000600860008581526020019081526020016000209050600460058111156116d9576116d8614747565b5b8160030160089054906101000a900460ff1660058111156116fd576116fc614747565b5b14611734576040517fbaf3f0f700000000000000000000000000000000000000000000000000000000815260040160405180910390fd5b8215611a7957600080836bffffffffffffffffffffffff16146117575782611775565b8160020160009054906101000a90046bffffffffffffffffffffffff165b90506000816bffffffffffffffffffffffff16036117bf576040517f2c5211c600000000000000000000000000000000000000000000000000000000815260040160405180910390fd5b60008260020160009054906101000a90046bffffffffffffffffffffffff169050806bffffffffffffffffffffffff16826bffffffffffffffffffffffff1611156118ce576000816bffffffffffffffffffffffff16836bffffffffffffffffffffffff1661182e9190614de1565b90506118386122fc565b811115611871576040517f90b8ab8800000000000000000000000000000000000000000000000000000000815260040160405180910390fd5b80600660008282829054906101000a90046bffffffffffffffffffffffff1661189a9190614b81565b92506101000a8154816bffffffffffffffffffffffff02191690836bffffffffffffffffffffffff1602179055505061195c565b806bffffffffffffffffffffffff16826bffffffffffffffffffffffff16101561195b57600082826119009190614cc9565b905080600660008282829054906101000a90046bffffffffffffffffffffffff1661192b9190614cc9565b92506101000a8154816bffffffffffffffffffffffff02191690836bffffffffffffffffffffffff160217905550505b5b818360020160006101000a8154816bffffffffffffffffffffffff02191690836bffffffffffffffffffffffff160217905550428360020160146101000a81548167ffffffffffffffff021916908367ffffffffffffffff16021790555060028360030160086101000a81548160ff021916908360058111156119e2576119e1614747565b5b02179055503373ffffffffffffffffffffffffffffffffffffffff16867f6f09b487bec3e8f388bf749d4855fcdee72ca5ba7d303beeb070517aca4647cf84604051611a2e9190614e15565b60405180910390a3857f5add0b1fc2a3dfd95be33d1d5feb6709087e50213b7a73c3c3b2c387001221e7600184604051611a69929190614e30565b60405180910390a2505050611c36565b60008160020160009054906101000a90046bffffffffffffffffffffffff166bffffffffffffffffffffffff161115611b54578060020160009054906101000a90046bffffffffffffffffffffffff16600660008282829054906101000a90046bffffffffffffffffffffffff16611af19190614cc9565b92506101000a8154816bffffffffffffffffffffffff02191690836bffffffffffffffffffffffff16021790555060008160020160006101000a8154816bffffffffffffffffffffffff02191690836bffffffffffffffffffffffff1602179055505b428160020160146101000a81548167ffffffffffffffff021916908367ffffffffffffffff16021790555060038160030160086101000a81548160ff02191690836005811115611ba757611ba6614747565b5b02179055503373ffffffffffffffffffffffffffffffffffffffff16847f68ac7a7469852261d06b9c916a01ddbd0c11d4d5147a0beb3bc8811fcee8b5a4604051611bf190614ea5565b60405180910390a3837f5add0b1fc2a3dfd95be33d1d5feb6709087e50213b7a73c3c3b2c387001221e7600080604051611c2c929190614f00565b60405180910390a2505b505050565b600560009054906101000a900467ffffffffffffffff1681565b600360149054906101000a900460ff1681565b611c706139ca565b600360149054906101000a900460ff16611cb6576040517f877bedb200000000000000000000000000000000000000000000000000000000815260040160405180910390fd5b600360159054906101000a900460ff1615611cfd576040517fb564121500000000000000000000000000000000000000000000000000000000815260040160405180910390fd5b600060086000838152602001908152602001600020905060026005811115611d2857611d27614747565b5b8160030160089054906101000a900460ff166005811115611d4c57611d4b614747565b5b14611d83576040517fbaf3f0f700000000000000000000000000000000000000000000000000000000815260040160405180910390fd5b8060030160099054906101000a900460ff1615611dcc576040517fbaf3f0f700000000000000000000000000000000000000000000000000000000815260040160405180910390fd5b6000600260009054906101000a900473ffffffffffffffffffffffffffffffffffffffff1673ffffffffffffffffffffffffffffffffffffffff163373ffffffffffffffffffffffffffffffffffffffff161480611e775750600360009054906101000a900473ffffffffffffffffffffffffffffffffffffffff1673ffffffffffffffffffffffffffffffffffffffff163373ffffffffffffffffffffffffffffffffffffffff16145b80611ea85750611ea77fe2b7fb3b832174769106daebcfd6d1970523240dda11281102db9363b83b0dc433612b88565b5b905080158015611f0757508160000160009054906101000a900473ffffffffffffffffffffffffffffffffffffffff1673ffffffffffffffffffffffffffffffffffffffff163373ffffffffffffffffffffffffffffffffffffffff16145b15611f9857600560009054906101000a900467ffffffffffffffff1667ffffffffffffffff168260020160149054906101000a900467ffffffffffffffff1667ffffffffffffffff16611f5a9190614f29565b421015611f93576040517f6b75316800000000000000000000000000000000000000000000000000000000815260040160405180910390fd5b611fd0565b80611fcf576040517ff114edaf00000000000000000000000000000000000000000000000000000000815260040160405180910390fd5b5b60008260020160009054906101000a90046bffffffffffffffffffffffff1690506000816bffffffffffffffffffffffff1603612039576040517f2c5211c600000000000000000000000000000000000000000000000000000000815260040160405180910390fd5b60018360030160096101000a81548160ff02191690831515021790555060058360030160086101000a81548160ff0219169083600581111561207e5761207d614747565b5b021790555080600660008282829054906101000a90046bffffffffffffffffffffffff166120ac9190614cc9565b92506101000a8154816bffffffffffffffffffffffff02191690836bffffffffffffffffffffffff160217905550806006600c8282829054906101000a90046bffffffffffffffffffffffff166121039190614b81565b92506101000a8154816bffffffffffffffffffffffff02191690836bffffffffffffffffffffffff16021790555060008360000160009054906101000a900473ffffffffffffffffffffffffffffffffffffffff1673ffffffffffffffffffffffffffffffffffffffff16826bffffffffffffffffffffffff1660405161218990614d3a565b60006040518083038185875af1925050503d80600081146121c6576040519150601f19603f3d011682016040523d82523d6000602084013e6121cb565b606091505b5050905080612206576040517f90b8ec1800000000000000000000000000000000000000000000000000000000815260040160405180910390fd5b8360000160009054906101000a900473ffffffffffffffffffffffffffffffffffffffff1673ffffffffffffffffffffffffffffffffffffffff16857ffc5651faaee8ae24f124cd7388fc74f306b6a914afd5759a786217f34a3d18c58433604051612273929190614f5d565b60405180910390a38360000160009054906101000a900473ffffffffffffffffffffffffffffffffffffffff1673ffffffffffffffffffffffffffffffffffffffff167f31dd4c1bc893bd53887b59c36c1a1b9f60960fa64c231ad0cd3603a1914bda35836040516122e59190614e15565b60405180910390a2505050506122f9613a19565b50565b6000600660009054906101000a90046bffffffffffffffffffffffff166bffffffffffffffffffffffff166006600c9054906101000a90046bffffffffffffffffffffffff166bffffffffffffffffffffffff16600560109054906101000a90046bffffffffffffffffffffffff166bffffffffffffffffffffffff166123839190614de1565b61238d9190614de1565b905090565b61239a6139ca565b600360149054906101000a900460ff166123e0576040517f877bedb200000000000000000000000000000000000000000000000000000000815260040160405180910390fd5b600360159054906101000a900460ff1615612427576040517fb564121500000000000000000000000000000000000000000000000000000000815260040160405180910390fd5b600260009054906101000a900473ffffffffffffffffffffffffffffffffffffffff1673ffffffffffffffffffffffffffffffffffffffff163373ffffffffffffffffffffffffffffffffffffffff16141580156124ac57506124aa7fe2b7fb3b832174769106daebcfd6d1970523240dda11281102db9363b83b0dc433612b88565b155b156124e3576040517f29da809d00000000000000000000000000000000000000000000000000000000815260040160405180910390fd5b600073ffffffffffffffffffffffffffffffffffffffff168273ffffffffffffffffffffffffffffffffffffffff1603612549576040517fe6c4247b00000000000000000000000000000000000000000000000000000000815260040160405180910390fd5b6000816bffffffffffffffffffffffff1603612591576040517f2c5211c600000000000000000000000000000000000000000000000000000000815260040160405180910390fd5b6125996122fc565b816bffffffffffffffffffffffff1611156125e0576040517f90b8ab8800000000000000000000000000000000000000000000000000000000815260040160405180910390fd5b806006600c8282829054906101000a90046bffffffffffffffffffffffff166126099190614b81565b92506101000a8154816bffffffffffffffffffffffff02191690836bffffffffffffffffffffffff16021790555060008273ffffffffffffffffffffffffffffffffffffffff16826bffffffffffffffffffffffff1660405161266b90614d3a565b60006040518083038185875af1925050503d80600081146126a8576040519150601f19603f3d011682016040523d82523d6000602084013e6126ad565b606091505b50509050806126e8576040517f90b8ec1800000000000000000000000000000000000000000000000000000000815260040160405180910390fd5b8273ffffffffffffffffffffffffffffffffffffffff1660007ffc5651faaee8ae24f124cd7388fc74f306b6a914afd5759a786217f34a3d18c58433604051612732929190614f5d565b60405180910390a38273ffffffffffffffffffffffffffffffffffffffff167f31dd4c1bc893bd53887b59c36c1a1b9f60960fa64c231ad0cd3603a1914bda35836040516127809190614e15565b60405180910390a250612791613a19565b5050565b600360159054906101000a900460ff1681565b600360149054906101000a900460ff166127ee576040517f877bedb200000000000000000000000000000000000000000000000000000000815260040160405180910390fd5b600360159054906101000a900460ff1615612835576040517fb564121500000000000000000000000000000000000000000000000000000000815260040160405180910390fd5b600260009054906101000a900473ffffffffffffffffffffffffffffffffffffffff1673ffffffffffffffffffffffffffffffffffffffff163373ffffffffffffffffffffffffffffffffffffffff16141580156128ba57506128b87fe2b7fb3b832174769106daebcfd6d1970523240dda11281102db9363b83b0dc433612b88565b155b156128f1576040517f29da809d00000000000000000000000000000000000000000000000000000000815260040160405180910390fd5b6000816bffffffffffffffffffffffff1603612939576040517f2c5211c600000000000000000000000000000000000000000000000000000000815260040160405180910390fd5b60006008600084815260200190815260200160002090506001600581111561296457612963614747565b5b8160030160089054906101000a900460ff16600581111561298857612987614747565b5b141580156129cc5750600460058111156129a5576129a4614747565b5b8160030160089054906101000a900460ff1660058111156129c9576129c8614747565b5b14155b15612a03576040517fbaf3f0f700000000000000000000000000000000000000000000000000000000815260040160405180910390fd5b612a0b6122fc565b826bffffffffffffffffffffffff161115612a52576040517f90b8ab8800000000000000000000000000000000000000000000000000000000815260040160405180910390fd5b818160020160006101000a8154816bffffffffffffffffffffffff02191690836bffffffffffffffffffffffff160217905550428160020160146101000a81548167ffffffffffffffff021916908367ffffffffffffffff16021790555060028160030160086101000a81548160ff02191690836005811115612ad857612ad7614747565b5b021790555081600660008282829054906101000a90046bffffffffffffffffffffffff16612b069190614b81565b92506101000a8154816bffffffffffffffffffffffff02191690836bffffffffffffffffffffffff1602179055503373ffffffffffffffffffffffffffffffffffffffff16837f6f09b487bec3e8f388bf749d4855fcdee72ca5ba7d303beeb070517aca4647cf84604051612b7b9190614e15565b60405180910390a3505050565b600080600084815260200190815260200160002060000160008373ffffffffffffffffffffffffffffffffffffffff1673ffffffffffffffffffffffffffffffffffffffff16815260200190815260200160002060009054906101000a900460ff16905092915050565b6000600360149054906101000a900460ff16612c3a576040517f877bedb200000000000000000000000000000000000000000000000000000000815260040160405180910390fd5b600360159054906101000a900460ff1615612c81576040517fb564121500000000000000000000000000000000000000000000000000000000815260040160405180910390fd5b828073ffffffffffffffffffffffffffffffffffffffff163373ffffffffffffffffffffffffffffffffffffffff1614158015612ce55750612ce37fe2b7fb3b832174769106daebcfd6d1970523240dda11281102db9363b83b0dc433612b88565b155b15612d1c576040517ff114edaf00000000000000000000000000000000000000000000000000000000815260040160405180910390fd5b600073ffffffffffffffffffffffffffffffffffffffff168473ffffffffffffffffffffffffffffffffffffffff161480612da45750600260009054906101000a900473ffffffffffffffffffffffffffffffffffffffff1673ffffffffffffffffffffffffffffffffffffffff168473ffffffffffffffffffffffffffffffffffffffff16145b15612ddb576040517fe6c4247b00000000000000000000000000000000000000000000000000000000815260040160405180910390fd5b6000801b8303612e17576040517fb55ac75400000000000000000000000000000000000000000000000000000000815260040160405180910390fd5b6009600084815260200190815260200160002060009054906101000a900460ff1615612e6f576040517f7c7d8fb300000000000000000000000000000000000000000000000000000000815260040160405180910390fd5b60016009600085815260200190815260200160002060006101000a81548160ff021916908315150217905550600160076000828254019250508190555060075491506040518061010001604052808573ffffffffffffffffffffffffffffffffffffffff16815260200184815260200160006bffffffffffffffffffffffff1681526020014267ffffffffffffffff168152602001600067ffffffffffffffff168152602001600067ffffffffffffffff16815260200160016005811115612f3a57612f39614747565b5b8152602001600015158152506008600084815260200190815260200160002060008201518160000160006101000a81548173ffffffffffffffffffffffffffffffffffffffff021916908373ffffffffffffffffffffffffffffffffffffffff1602179055506020820151816001015560408201518160020160006101000a8154816bffffffffffffffffffffffff02191690836bffffffffffffffffffffffff160217905550606082015181600201600c6101000a81548167ffffffffffffffff021916908367ffffffffffffffff16021790555060808201518160020160146101000a81548167ffffffffffffffff021916908367ffffffffffffffff16021790555060a08201518160030160006101000a81548167ffffffffffffffff021916908367ffffffffffffffff16021790555060c08201518160030160086101000a81548160ff0219169083600581111561309957613098614747565b5b021790555060e08201518160030160096101000a81548160ff021916908315150217905550905050828473ffffffffffffffffffffffffffffffffffffffff16837f49235b26ec75361b95d46863051dc6405821668ae42d3e4ba888fa8fbf76098360405160405180910390a45092915050565b7fe2b7fb3b832174769106daebcfd6d1970523240dda11281102db9363b83b0dc481565b6000801b81565b600560109054906101000a90046bffffffffffffffffffffffff1681565b600660009054906101000a90046bffffffffffffffffffffffff1681565b60086020528060005260406000206000915090508060000160009054906101000a900473ffffffffffffffffffffffffffffffffffffffff16908060010154908060020160009054906101000a90046bffffffffffffffffffffffff169080600201600c9054906101000a900467ffffffffffffffff16908060020160149054906101000a900467ffffffffffffffff16908060030160009054906101000a900467ffffffffffffffff16908060030160089054906101000a900460ff16908060030160099054906101000a900460ff16905088565b600360149054906101000a900460ff16613290576040517f877bedb200000000000000000000000000000000000000000000000000000000815260040160405180910390fd5b600360159054906101000a900460ff16156132d7576040517fb564121500000000000000000000000000000000000000000000000000000000815260040160405180910390fd5b600260009054906101000a900473ffffffffffffffffffffffffffffffffffffffff1673ffffffffffffffffffffffffffffffffffffffff163373ffffffffffffffffffffffffffffffffffffffff161415801561335c575061335a7fe2b7fb3b832174769106daebcfd6d1970523240dda11281102db9363b83b0dc433612b88565b155b15613393576040517f29da809d00000000000000000000000000000000000000000000000000000000815260040160405180910390fd5b61339d3433613bff565b565b6133a8826110cb565b6133b181613a22565b6133bb8383613b1e565b505050565b600360149054906101000a900460ff16613406576040517f877bedb200000000000000000000000000000000000000000000000000000000815260040160405180910390fd5b600360159054906101000a900460ff161561344d576040517fb564121500000000000000000000000000000000000000000000000000000000815260040160405180910390fd5b600260009054906101000a900473ffffffffffffffffffffffffffffffffffffffff1673ffffffffffffffffffffffffffffffffffffffff163373ffffffffffffffffffffffffffffffffffffffff16141580156134d257506134d07fe2b7fb3b832174769106daebcfd6d1970523240dda11281102db9363b83b0dc433612b88565b155b15613509576040517f29da809d00000000000000000000000000000000000000000000000000000000815260040160405180910390fd5b6135133433613bff565b565b600360149054906101000a900460ff1661355b576040517f877bedb200000000000000000000000000000000000000000000000000000000815260040160405180910390fd5b600360159054906101000a900460ff16156135a2576040517fb564121500000000000000000000000000000000000000000000000000000000815260040160405180910390fd5b826000600860008381526020019081526020016000209050600060058111156135ce576135cd614747565b5b8160030160089054906101000a900460ff1660058111156135f2576135f1614747565b5b03613629576040517fb55ac75400000000000000000000000000000000000000000000000000000000815260040160405180910390fd5b8060000160009054906101000a900473ffffffffffffffffffffffffffffffffffffffff1673ffffffffffffffffffffffffffffffffffffffff163373ffffffffffffffffffffffffffffffffffffffff16141580156136b057506136ae7fe2b7fb3b832174769106daebcfd6d1970523240dda11281102db9363b83b0dc433612b88565b155b156136e7576040517ff114edaf00000000000000000000000000000000000000000000000000000000815260040160405180910390fd5b60006008600087815260200190815260200160002090506002600581111561371257613711614747565b5b8160030160089054906101000a900460ff16600581111561373657613735614747565b5b1415801561377a57506003600581111561375357613752614747565b5b8160030160089054906101000a900460ff16600581111561377757613776614747565b5b14155b156137b1576040517fbaf3f0f700000000000000000000000000000000000000000000000000000000815260040160405180910390fd5b60008160020160149054906101000a900467ffffffffffffffff1667ffffffffffffffff16148061382e5750600560089054906101000a900467ffffffffffffffff1667ffffffffffffffff168160020160149054906101000a900467ffffffffffffffff1667ffffffffffffffff1661382b9190614f29565b42115b15613865576040517f8d303ff400000000000000000000000000000000000000000000000000000000815260040160405180910390fd5b60048160030160086101000a81548160ff0219169083600581111561388d5761388c614747565b5b0217905550428160030160006101000a81548167ffffffffffffffff021916908367ffffffffffffffff1602179055508060000160009054906101000a900473ffffffffffffffffffffffffffffffffffffffff1673ffffffffffffffffffffffffffffffffffffffff16867fa113e8249261d4cbdefcdb46ef0848f645a32fc2cc871845242079f6f513e31d878760405161392a929190614ca5565b60405180910390a3505050505050565b600360009054906101000a900473ffffffffffffffffffffffffffffffffffffffff1681565b60007f01ffc9a7000000000000000000000000000000000000000000000000000000007bffffffffffffffffffffffffffffffffffffffffffffffffffffffff1916827bffffffffffffffffffffffffffffffffffffffffffffffffffffffff1916149050919050565b600260015403613a0f576040517f08c379a0000000000000000000000000000000000000000000000000000000008152600401613a0690614fd2565b60405180910390fd5b6002600181905550565b60018081905550565b613a3381613a2e613b16565b613d4c565b50565b613a408282612b88565b613b1257600160008084815260200190815260200160002060000160008373ffffffffffffffffffffffffffffffffffffffff1673ffffffffffffffffffffffffffffffffffffffff16815260200190815260200160002060006101000a81548160ff021916908315150217905550613ab7613b16565b73ffffffffffffffffffffffffffffffffffffffff168173ffffffffffffffffffffffffffffffffffffffff16837f2f8788117e7eff1d82e926ec794901d17c78024a50270940304540a733656f0d60405160405180910390a45b5050565b600033905090565b613b288282612b88565b15613bfb57600080600084815260200190815260200160002060000160008373ffffffffffffffffffffffffffffffffffffffff1673ffffffffffffffffffffffffffffffffffffffff16815260200190815260200160002060006101000a81548160ff021916908315150217905550613ba0613b16565b73ffffffffffffffffffffffffffffffffffffffff168173ffffffffffffffffffffffffffffffffffffffff16837ff6391f5c32d9c69d2a47ea670b442974b53935d1edc7fd64eb21e047a839171b60405160405180910390a45b5050565b60008203613c39576040517f2c5211c600000000000000000000000000000000000000000000000000000000815260040160405180910390fd5b81600560108282829054906101000a90046bffffffffffffffffffffffff16613c629190614b81565b92506101000a8154816bffffffffffffffffffffffff02191690836bffffffffffffffffffffffff1602179055508073ffffffffffffffffffffffffffffffffffffffff167fcd909ec339185c4598a4096e174308fbdf136d117f230960f873a2f2e81f63af83600560109054906101000a90046bffffffffffffffffffffffff16604051613cf2929190614bf2565b60405180910390a28073ffffffffffffffffffffffffffffffffffffffff167ffd659ad05094196dc326624351738485027a10bfdda3d2200e7334a5457c65a983604051613d4091906144c2565b60405180910390a25050565b613d568282612b88565b613dcd57613d6381613dd1565b613d718360001c6020613dfe565b604051602001613d829291906150c6565b6040516020818303038152906040526040517f08c379a0000000000000000000000000000000000000000000000000000000008152600401613dc4919061432c565b60405180910390fd5b5050565b6060613df78273ffffffffffffffffffffffffffffffffffffffff16601460ff16613dfe565b9050919050565b606060006002836002613e119190615100565b613e1b9190614f29565b67ffffffffffffffff811115613e3457613e33614847565b5b6040519080825280601f01601f191660200182016040528015613e665781602001600182028036833780820191505090505b5090507f300000000000000000000000000000000000000000000000000000000000000081600081518110613e9e57613e9d615142565b5b60200101907effffffffffffffffffffffffffffffffffffffffffffffffffffffffffffff1916908160001a9053507f780000000000000000000000000000000000000000000000000000000000000081600181518110613f0257613f01615142565b5b60200101907effffffffffffffffffffffffffffffffffffffffffffffffffffffffffffff1916908160001a90535060006001846002613f429190615100565b613f4c9190614f29565b90505b6001811115613fec577f3031323334353637383961626364656600000000000000000000000000000000600f861660108110613f8e57613f8d615142565b5b1a60f81b828281518110613fa557613fa4615142565b5b60200101907effffffffffffffffffffffffffffffffffffffffffffffffffffffffffffff1916908160001a905350600485901c945080613fe590615171565b9050613f4f565b5060008414614030576040517f08c379a0000000000000000000000000000000000000000000000000000000008152600401614027906151e6565b60405180910390fd5b8091505092915050565b600080fd5b600080fd5b600073ffffffffffffffffffffffffffffffffffffffff82169050919050565b600061406f82614044565b9050919050565b61407f81614064565b811461408a57600080fd5b50565b60008135905061409c81614076565b92915050565b600080fd5b600080fd5b600080fd5b60008083601f8401126140c7576140c66140a2565b5b8235905067ffffffffffffffff8111156140e4576140e36140a7565b5b602083019150836001820283011115614100576140ff6140ac565b5b9250929050565b600067ffffffffffffffff82169050919050565b61412481614107565b811461412f57600080fd5b50565b6000813590506141418161411b565b92915050565b60008060008060008060a087890312156141645761416361403a565b5b600061417289828a0161408d565b965050602087013567ffffffffffffffff8111156141935761419261403f565b5b61419f89828a016140b1565b955095505060406141b289828a0161408d565b93505060606141c389828a01614132565b92505060806141d489828a01614132565b9150509295509295509295565b60007fffffffff0000000000000000000000000000000000000000000000000000000082169050919050565b614216816141e1565b811461422157600080fd5b50565b6000813590506142338161420d565b92915050565b60006020828403121561424f5761424e61403a565b5b600061425d84828501614224565b91505092915050565b60008115159050919050565b61427b81614266565b82525050565b60006020820190506142966000830184614272565b92915050565b600081519050919050565b600082825260208201905092915050565b60005b838110156142d65780820151818401526020810190506142bb565b60008484015250505050565b6000601f19601f8301169050919050565b60006142fe8261429c565b61430881856142a7565b93506143188185602086016142b8565b614321816142e2565b840191505092915050565b6000602082019050818103600083015261434681846142f3565b905092915050565b6000819050919050565b6143618161434e565b811461436c57600080fd5b50565b60008135905061437e81614358565b92915050565b60008060006040848603121561439d5761439c61403a565b5b60006143ab8682870161436f565b935050602084013567ffffffffffffffff8111156143cc576143cb61403f565b5b6143d8868287016140b1565b92509250509250925092565b6000819050919050565b6143f7816143e4565b811461440257600080fd5b50565b600081359050614414816143ee565b92915050565b6000602082840312156144305761442f61403a565b5b600061443e84828501614405565b91505092915050565b61445081614107565b82525050565b600060208201905061446b6000830184614447565b92915050565b60006bffffffffffffffffffffffff82169050919050565b61449281614471565b82525050565b60006020820190506144ad6000830184614489565b92915050565b6144bc8161434e565b82525050565b60006020820190506144d760008301846144b3565b92915050565b6144e681614064565b82525050565b600060208201905061450160008301846144dd565b92915050565b614510816143e4565b82525050565b600060208201905061452b6000830184614507565b92915050565b600080604083850312156145485761454761403a565b5b600061455685828601614405565b92505060206145678582860161408d565b9150509250929050565b61457a81614266565b811461458557600080fd5b50565b60008135905061459781614571565b92915050565b6145a681614471565b81146145b157600080fd5b50565b6000813590506145c38161459d565b92915050565b6000806000606084860312156145e2576145e161403a565b5b60006145f08682870161436f565b935050602061460186828701614588565b9250506040614612868287016145b4565b9150509250925092565b6000602082840312156146325761463161403a565b5b60006146408482850161436f565b91505092915050565b600061465482614044565b9050919050565b61466481614649565b811461466f57600080fd5b50565b6000813590506146818161465b565b92915050565b6000806040838503121561469e5761469d61403a565b5b60006146ac85828601614672565b92505060206146bd858286016145b4565b9150509250929050565b600080604083850312156146de576146dd61403a565b5b60006146ec8582860161436f565b92505060206146fd858286016145b4565b9150509250929050565b6000806040838503121561471e5761471d61403a565b5b600061472c8582860161408d565b925050602061473d85828601614405565b9150509250929050565b7f4e487b7100000000000000000000000000000000000000000000000000000000600052602160045260246000fd5b6006811061478757614786614747565b5b50565b600081905061479882614776565b919050565b60006147a88261478a565b9050919050565b6147b88161479d565b82525050565b6000610100820190506147d4600083018b6144dd565b6147e1602083018a614507565b6147ee6040830189614489565b6147fb6060830188614447565b6148086080830187614447565b61481560a0830186614447565b61482260c08301856147af565b61482f60e0830184614272565b9998505050505050505050565b600082905092915050565b7f4e487b7100000000000000000000000000000000000000000000000000000000600052604160045260246000fd5b7f4e487b7100000000000000000000000000000000000000000000000000000000600052602260045260246000fd5b600060028204905060018216806148bd57607f821691505b6020821081036148d0576148cf614876565b5b50919050565b60008190508160005260206000209050919050565b60006020601f8301049050919050565b600082821b905092915050565b6000600883026149387fffffffffffffffffffffffffffffffffffffffffffffffffffffffffffffffff826148fb565b61494286836148fb565b95508019841693508086168417925050509392505050565b6000819050919050565b600061497f61497a6149758461434e565b61495a565b61434e565b9050919050565b6000819050919050565b61499983614964565b6149ad6149a582614986565b848454614908565b825550505050565b600090565b6149c26149b5565b6149cd818484614990565b505050565b5b818110156149f1576149e66000826149ba565b6001810190506149d3565b5050565b601f821115614a3657614a07816148d6565b614a10846148eb565b81016020851015614a1f578190505b614a33614a2b856148eb565b8301826149d2565b50505b505050565b600082821c905092915050565b6000614a5960001984600802614a3b565b1980831691505092915050565b6000614a728383614a48565b9150826002028217905092915050565b614a8c838361483c565b67ffffffffffffffff811115614aa557614aa4614847565b5b614aaf82546148a5565b614aba8282856149f5565b6000601f831160018114614ae95760008415614ad7578287013590505b614ae18582614a66565b865550614b49565b601f198416614af7866148d6565b60005b82811015614b1f57848901358255600182019150602085019450602081019050614afa565b86831015614b3c5784890135614b38601f891682614a48565b8355505b6001600288020188555050505b50505050505050565b7f4e487b7100000000000000000000000000000000000000000000000000000000600052601160045260246000fd5b6000614b8c82614471565b9150614b9783614471565b925082820190506bffffffffffffffffffffffff811115614bbb57614bba614b52565b5b92915050565b6000614bdc614bd7614bd284614471565b61495a565b61434e565b9050919050565b614bec81614bc1565b82525050565b6000604082019050614c0760008301856144b3565b614c146020830184614be3565b9392505050565b82818337600083830152505050565b6000614c3683856142a7565b9350614c43838584614c1b565b614c4c836142e2565b840190509392505050565b60006080820190508181036000830152614c72818789614c2a565b9050614c816020830186614447565b614c8e6040830185614447565b614c9b60608301846144b3565b9695505050505050565b60006020820190508181036000830152614cc0818486614c2a565b90509392505050565b6000614cd482614471565b9150614cdf83614471565b925082820390506bffffffffffffffffffffffff811115614d0357614d02614b52565b5b92915050565b600081905092915050565b50565b6000614d24600083614d09565b9150614d2f82614d14565b600082019050919050565b6000614d4582614d17565b9150819050919050565b7f416363657373436f6e74726f6c3a2063616e206f6e6c792072656e6f756e636560008201527f20726f6c657320666f722073656c660000000000000000000000000000000000602082015250565b6000614dab602f836142a7565b9150614db682614d4f565b604082019050919050565b60006020820190508181036000830152614dda81614d9e565b9050919050565b6000614dec8261434e565b9150614df78361434e565b9250828203905081811115614e0f57614e0e614b52565b5b92915050565b6000602082019050614e2a6000830184614be3565b92915050565b6000604082019050614e456000830185614272565b614e526020830184614be3565b9392505050565b7f52656a6563746564206279206172626974657200000000000000000000000000600082015250565b6000614e8f6013836142a7565b9150614e9a82614e59565b602082019050919050565b60006020820190508181036000830152614ebe81614e82565b9050919050565b6000819050919050565b6000614eea614ee5614ee084614ec5565b61495a565b61434e565b9050919050565b614efa81614ecf565b82525050565b6000604082019050614f156000830185614272565b614f226020830184614ef1565b9392505050565b6000614f348261434e565b9150614f3f8361434e565b9250828201905080821115614f5757614f56614b52565b5b92915050565b6000604082019050614f726000830185614be3565b614f7f60208301846144dd565b9392505050565b7f5265656e7472616e637947756172643a207265656e7472616e742063616c6c00600082015250565b6000614fbc601f836142a7565b9150614fc782614f86565b602082019050919050565b60006020820190508181036000830152614feb81614faf565b9050919050565b600081905092915050565b7f416363657373436f6e74726f6c3a206163636f756e7420000000000000000000600082015250565b6000615033601783614ff2565b915061503e82614ffd565b601782019050919050565b60006150548261429c565b61505e8185614ff2565b935061506e8185602086016142b8565b80840191505092915050565b7f206973206d697373696e6720726f6c6520000000000000000000000000000000600082015250565b60006150b0601183614ff2565b91506150bb8261507a565b601182019050919050565b60006150d182615026565b91506150dd8285615049565b91506150e8826150a3565b91506150f48284615049565b91508190509392505050565b600061510b8261434e565b91506151168361434e565b92508282026151248161434e565b9150828204841483151761513b5761513a614b52565b5b5092915050565b7f4e487b7100000000000000000000000000000000000000000000000000000000600052603260045260246000fd5b600061517c8261434e565b91506000820361518f5761518e614b52565b5b600182039050919050565b7f537472696e67733a20686578206c656e67746820696e73756666696369656e74600082015250565b60006151d06020836142a7565b91506151db8261519a565b602082019050919050565b600060208201905081810360008301526151ff816151c3565b905091905056fea2646970667358221220664f5c82af52d1bad72e782256d01b0ab2de09ad8ef4a1cac068482720f8758064736f6c63430008130033",
  "linkReferences": {},
  "deployedLinkReferences": {}
}